:020000040800F2
:100000006034002031020008390200083B02000879
:100010003D0200083F020008410200080000000005
:10002000000000000000000000000000990100082E
:100030004502000800000000DD010008C10E0008B4
:100040004B0200084B0200084B0200084B0200085C
:100050004B0200084B0200084B0200084B0200084C
:100060004B0200084B0200084B0200084B0200083C
:100070004B0200084B0200084B0200084B0200082C
:100080004B0200084B0200084B0200084B0200081C
:100090004B0200084B0200084B0200084B0200080C
:1000A0004B0200084B0200084B0200084B020008FC
:1000B0004B0200084B0200084B0200084B020008EC
:1000C0004B0200084B0200084B0200084B020008DC
:1000D0004B0200083D12000891120008E5120008CA
:1000E0004B0200084B0200084B02000800F002F827
:1000F00000F03FF80AA090E8000C82448344AAF183
:100100000107DA4501D100F034F8AFF2090EBAE880
:100110000F0013F0010F18BFFB1A43F0010318473B
:10012000242F0000442F0000103A24BF78C878C163
:10013000FAD8520724BF30C830C144BF04680C60ED
:10014000704700000023002400250026103A28BF35
:1001500078C1FBD8520728BF30C148BF0B60704739
:10016000642900F0CD80002070471FB51FBD10B579
:1001700010BD00F043FA114603B401F04FF903BC7F
:10018000FFF7F3FF01F04CF900F05DFA03B4FFF75D
:10019000EEFF03BC00F064FA224B19680868B0E86F
:1001A000F00F80F30988BFF36F8F4FF0000080F3EA
:1001B00011884EF00D0E70470000000006480068E0
:1001C000006880F3088862B661B6BFF34F8FBFF353
:1001D0006F8F00DF00BF00BF08ED00E0EFF3098084
:1001E000BFF36F8F0F4B1A6820E9F00F106008B54E
:1001F0004FF0100080F31188BFF34F8FBFF36F8F64
:1002000002F0B2F84FF0000080F31188BDE808401A
:1002100019680868B0E8F00F80F30988BFF36F8FA2
:10022000704700BF58000020EFF3058070470000C2
:100230000948804709480047FEE7FEE7FEE7FEE77A
:10024000FEE7FEE7FEE7FEE7FEE7FEE704480549B6
:10025000054A064B704700007D0F0008ED000008BE
:10026000602E0020603400206030002060300020CC
:100270000FB41CB5074B06AA7B446946009005984D
:1002800000F029F90020694600F038F91CBC5DF83F
:1002900014FB0000810200002DE9F0410E460446E7
:1002A000002020622046E168884730B3252805D029
:1002B000D4E901219047206A401CF2E7E16820461A
:1002C00000278847050018D0A5F14100192802D859
:1002D00020354FF400673246294620462760FFF755
:1002E0003FFF40B1012804D0F61D26F0070608366E
:1002F000D8E7361DD6E72846DAE7206ABDE8F08160
:100300002DE9F0410646002410687529314616A5EE
:1003100010D0AFF30080002802DA404213A507E0B6
:1003200031688A0701D512A502E0490704D511A555
:10033000012401E0AFF3008000210A2206F1240726
:1003400009E0B0FBF2FCB0FBF2F302FB1C00303022
:1003500078541846491C0028F3D123462A463046D3
:10036000BDE8F04100F058B8000000002D0000008A
:100370002B00000020000000032A40F2308010F023
:10038000030C00F0158011F8013BBCF1020F624430
:1003900098BF11F801CB00F8013B38BF11F8013BC1
:1003A000A2F1040298BF00F801CB38BF00F8013B6E
:1003B00011F0030300F0A780083AC0F0088051F85C
:1003C000043B083A51F804CBA0E80810F5E7121DE9
:1003D0005CBF51F8043B40F8043BAFF30080D20708
:1003E00024BF11F8013B11F801CB48BF11F8012BD4
:1003F00024BF00F8013B00F801CB48BF00F8012BF7
:10040000704702F0FF0343EA032242EA024200F08F
:10041000AEB87047704770472DE9F0470D469946D2
:100420009246044600F124080168880604D5E06974
:1004300021F01001216000E00120A84201DD471BEE
:1004400000E00027A1697A1902EB0900081AA061EF
:100450002078C00602D42046AFF30080002608E0D2
:10046000D4E901211AF806009047206A401C761C46
:1004700020624E45F4DB2078C0060AD52046AFF353
:10048000008006E0D4E9012130209047206A401C1A
:100490002062381EA7F10107F4DC07E0D4E901214E
:1004A00018F805009047206A401C2062281EA5F11C
:1004B0000105F3DC2046AFF300802078000602D56A
:1004C0000220BDE8F0870120FBE7000001694A1C1B
:1004D00002610878704700B58FB0CDE90131002185
:1004E000059105497944CDE9031011466846FFF7A7
:1004F000D3FE0FB000BD0000E5FFFFFF0A6802F861
:10050000010B0A60704710B5203AC0F00B80B1E8CB
:100510001850203AA0E81850B1E81850A0E8185038
:10052000BFF4F5AF5FEA027C24BFB1E81850A0E841
:10053000185044BF18C918C0BDE810405FEA827C5B
:1005400024BF51F8043B40F8043B08BF7047D20772
:1005500028BF31F8023B48BF11F8012B28BF20F813
:10056000023B48BF00F8012B70474FF000020429FE
:10057000C0F0128010F0030C00F01B80CCF1040CD2
:10058000BCF1020F18BF00F8012BA8BF20F8022B06
:10059000A1EB0C0100F00DB85FEAC17C24BF00F8AC
:1005A000012B00F8012B48BF00F8012B70474FF0DA
:1005B000000200B5134694469646203922BFA0E8B3
:1005C0000C50A0E80C50B1F12001BFF4F7AF0907BF
:1005D00028BFA0E80C5048BF0CC05DF804EB8900B0
:1005E00028BF40F8042B08BF704748BF20F8022BF3
:1005F00011F0804F18BF00F8012B7047754600F0CE
:100600002BF8AE4605006946534620F007008546A4
:1006100018B020B5FFF71AFEBDE820404FF00006E5
:100620004FF000074FF000084FF0000B21F00701DA
:10063000AC46ACE8C009ACE8C009ACE8C009ACE81D
:10064000C0098D46704710B50446AFF300802046C0
:10065000BDE81040FFF79ABD00487047002E00200B
:1006600001491820ABBEFEE726000200704721B109
:10067000426842F48062426003E0426822F4806291
:100680004260704721B1826842F00102826003E05B
:10069000826822F00102826070470A460021816868
:1006A00021F4E041114381607047014600208A68CF
:1006B00002F004020AB1012000E00020704708B5F2
:1006C000024600200090009201F12800009B18448F
:1006D00000900098006880B208BD014600208A683A
:1006E00002F008020AB1012000E00020704700007B
:1006F00030B502460020002350680F4C20400D7991
:100700000C6844EA05242043506090680B4C20405C
:10071000D1E902542C434D7944EA450420439060CA
:10072000D06A20F470000C7C641EE4B2234340EADB
:100730000350D06230BD0000FFFEF0FFFDF7F1FF77
:1007400000B587B04FF4004000F0F2FA01214FF4F9
:10075000017000F0F9FA0320ADF8180000208DF8C0
:100760001B0003208DF81A0006A9264800F0D8F9CE
:1007700001208DF80900002004904FF460200390C0
:100780000020019002208DF8140001208DF808004F
:1007900001A91D48FFF7ACFF02211B4800F077F8C4
:1007A00001231A460021184800F030F801230222E4
:1007B0001946154800F02AF84FF4E0411248FFF7B7
:1007C0006CFF01211048FFF75DFF0F4800F06BF848
:1007D00000BF0D48FFF781FF0028FAD10A4800F05A
:1007E00072F800BF0848FFF760FF0028FAD1012126
:1007F0000548FFF73CFF0121034800F059F807B016
:1008000000BD00000008014000240140F0B504468E
:100810001546002000220026092911DDE068A1F11B
:100820000A0707EB470C072707FA0CF29043A1F1E0
:100830000A0707EB470703FA07F21043E0600CE0F2
:10084000206901EB410C072707FA0CF2904301EBFA
:10085000410703FA07F210432061A06BC0F3015671
:10086000EF1C06F1010CA7EB0C0707EB870C1F2709
:1008700007FA0CF29043EF1C06F1010CA7EB0C07F2
:1008800007EB870701FA07F21043A063F0BD10B52C
:100890000A4600210023816B21F44011531E41EAD6
:1008A0000351816310BD816841F008018160704788
:1008B00021B1826842F40212826003E0826822F46D
:1008C000021282607047816841F0040181607047C4
:1008D00010B500241848006820F0704016490860E0
:1008E0000846006840F00040086004E0601CC4B2A4
:1008F000012000F0E8F810480830006800F080009F
:1009000008B1642CF2DB642C01DB012010BD002453
:1009100004E0601CC4B2012000F0D5F8064808309D
:10092000006800F0800008B9642CF2DB642C01DB65
:100930000120EBE70020E9E70008014008B50121AC
:10094000042000F001FA8020ADF8000010208DF89E
:10095000030003208DF802006946064800F0E0F825
:10096000802004491431086000F080F8FFF7B0FFE0
:1009700008BD0000000801400148007870470000F1
:10098000110000200148007870470000100000208E
:1009900010B5002404E0601CC4B2012000F093F8FC
:1009A0001048006800F0800008B1642CF3DB0024DC
:1009B00004E0601CC4B2012000F085F8094800681A
:1009C00000F0800008B9642CF3DB282000F07BF8ED
:1009D0000448006800F0800008B1012010BD00202C
:1009E000FCE700000808014030B50025002400BFE6
:1009F00006E06006040EFFF7CBFF0443681CC5B297
:100A0000082DF6DB204630BD1CB5002400F02EF882
:100A1000FFF75EFF08BB00BF05E0FFF7E5FF0DF83D
:100A20000400601CC4B2052CF7DB9DF800009DF8A3
:100A3000011008449DF8021008449DF80310084472
:100A40009DF8041088420AD19DF8000005490870FD
:100A50009DF802000449087001E001201CBD00203F
:100A6000FCE70000110000201000002000B50D4838
:100A7000006820F070400B4908600846006840F0AC
:100A8000405008608020074914310860142000F0AD
:100A90000BF880200349103108601E2000F013F885
:100AA00000BD000000080140002109E0002201E033
:100AB000531C9AB242F614039A42F9DB4B1C99B2CA
:100AC0008142F3DB7047002107E0002201E0531C64
:100AD0009AB2092AFBDB4B1C99B28142F5DB7047C5
:100AE0004FF0E021096921F004014FF0E02211618B
:100AF000C21700EB5272C2F3C702074B1A701946B5
:100B0000097801EB4102C2EBC1114FF6FF7202EA14
:100B1000C101024A1180704700000020020000203D
:100B20002DE9F04102460025002600200023002484
:100B3000002791F803C00CF00F0591F803C00CF0EA
:100B4000100CBCF1000F03D091F802C04CEA05056F
:100B500091F800C0BCF1000F31D0146800202BE0E8
:100B60004FF0010C0CFA00F3B1F800C00CEA0306D8
:100B70009E4220D183004FF00F0C0CFA03F7BC43C8
:100B800005FA03FC4CEA040491F803C0BCF1280FF9
:100B900006D14FF0010C0CFA00FCC2F814C00AE0B8
:100BA00091F803C0BCF1480F05D14FF0010C0CFACD
:100BB00000FCC2F810C0401C0828D1D31460B1F862
:100BC00000C0BCF1FF0F34DD546800202EE000F1BE
:100BD000080C4FF0010808FA0CF3B1F800C00CEA59
:100BE00003069E4221D183004FF00F0C0CFA03F74D
:100BF000BC4305FA03FC4CEA040491F803C0BCF1C1
:100C0000280F05D100F1080C08FA0CF8C2F814807E
:100C100091F803C0BCF1480F07D100F1080C4FF068
:100C2000010808FA0CF8C2F81080401C0828CED33E
:100C30005460BDE8F0810AB1016100E04161704794
:100C400010B504461848806940F0040016498861D0
:100C50001648006840F4966014490860124880699C
:100C600040F480401049886111480068B0FBF4F0FE
:100C700001090F480068B0FBF4F061F31F100D4943
:100C80000880081D008840F02C00091D08802520E0
:100C900000F052FB0748001D008840F40050054951
:100CA000091D088010BD000000100240040801402A
:100CB000200000200838014010B50446184880691B
:100CC00040F00400164988611648006840F49640D8
:100CD000144908601248C06940F400301049C861E6
:100CE000600011490968B1FBF0F001090E48006885
:100CF000B0FBF4F061F31F100C490880081D008858
:100D000040F02C00091D0880262000F015FB074844
:100D1000001D008840F400500449091D088010BDE2
:100D2000001002400008014020000020084400405C
:100D300001460020034A506820F4404008435060B8
:100D4000704700000010024029B1064A9269024330
:100D5000044B9A6104E0034A92698243014B9A6111
:100D6000704700000010024008B501210420FFF781
:100D7000EBFF6020ADF8000010208DF80300032089
:100D80008DF8020069460748FFF7CAFE01222021BC
:100D90000448FFF750FF012240210248FFF74BFFB4
:100DA00008BD00000008014010B500F0E7F800F0B1
:100DB00093F84820FFF794FE4FF41650FFF740FFDA
:100DC0004FF41650FFF778FFFFF7B8FDFFF7B8FCB8
:100DD000FFF7CAFF10BD10B500F002F810BD00000B
:100DE0000CB50020019000903348006840F480303A
:100DF0003149086000BF3048006800F400300090BE
:100E00000198401C0190009818B90198B0F5A06FA6
:100E1000F1D12948006800F4003010B101200090A1
:100E200001E0002000900098012843D12348006889
:100E300040F01000214908600846006820F00300D7
:100E400008600846006840F0020008601A484068E0
:100E5000194948600846406848600846406840F4C0
:100E6000806048600846406820F47C10486008466E
:100E7000406840F4E81048600846006840F0807020
:100E8000086000BF0C48006800F000700028F9D02E
:100E90000948406820F00300074948600846406858
:100EA00040F00200486000BF0348406800F00C00BA
:100EB0000828F9D10CBD00000010024000200240BB
:100EC00010B54FF0E020006901F0C8FD012801D005
:100ED00001F0BCFA10BD000010B500210020002276
:100EE000214B5B6803F00C0121B1042906D00829CD
:100EF00028D107E01D4B1E4C236027E01B4B1C4CE8
:100F0000236023E0184B5B6803F47010164B5B689A
:100F100003F48032022303EB904022B9154B434384
:100F2000134C23600DE0104B5B6803F4003323B1D6
:100F3000104B43430E4C236003E00C4B43430C4CDB
:100F4000236003E0094B0A4C236000BF00BF064B3F
:100F50005B68C3F30313084CE15C054B1B68CB4093
:100F6000034C236010BD00000010024000127A0004
:100F70002000002000093D002400002010B5134887
:100F8000006840F0010011490860084640681049B7
:100F900008400E494860084600680E4908400B4961
:100FA00008600846006820F4802008600846406811
:100FB00020F4FE0048604FF41F008860FFF70BFF2D
:100FC0004FF000600449086010BD000000100240AE
:100FD0000000FFF8FFFFF6FE08ED00E03BE01E48D2
:100FE0000078012834D100201B4908701B48007884
:100FF000302808D11AA000F0F9F8012220211C485D
:10100000FFF719FE0BE015480078312807D119A029
:1010100000F0ECF8002220211548FFF70CFE0F48E5
:101020008078302808D116A000F0E0F80122402195
:101030000F48FFF700FE0BE008488078312807D101
:1010400013A000F0D3F8002240210948FFF7F3FD78
:10105000642001F071F8C2E71A000020C0000020EF
:1010600052656C6179313A204F46462000000000FD
:101070000008014052656C6179313A204F4E2000E2
:1010800052656C6179323A204F4646200A000000D2
:1010900052656C6179323A204F4E200A0000000000
:1010A0001CB50020019063E0002600240025FFF716
:1010B000ABFCFFF767FC8DF80400FFF75DFC8DF8D3
:1010C000050000BF11E018212A48FFF7F8FA0A21AD
:1010D00090FBF1F0044414212648FFF7F0FA0A21AE
:1010E00090FBF1F00544701CC6B2322EEBDB3220CF
:1010F000B4FBF0F4B5FBF0F5B5F5917F02D24FF4F7
:10110000917504E0B5F5C37F01D94FF4C375462C42
:1011100001D2462404E0B4F5AF7F01D94FF4AF7497
:10112000002064234FF4C3724FF49171009028465D
:1011300000F0B2F9C0B28DF80700002064234FF42C
:10114000AF7246210090204600F0A6F9C0B28DF89B
:1011500006000948006830B100231A4601A9064874
:10116000006801F04BFA4FF4FA6000F0E5FF00BFB1
:101170009AE70000002401400C00002090B01BE022
:10118000002202A90D48006801F0C4FA80B19DF860
:101190000A009DF80B10CDE900109DF809309DF86C
:1011A000082007A103A8FFF763F803A800F03AF8A6
:1011B0000A2000F0C1FF00BFE2E700000C000020A1
:1011C000256420256420256420256420210000005A
:1011D000C1B2054A118000BF0349091F098801F007
:1011E00080010029F8D070470438014000B503465B
:1011F00003E01878FFF7ECFF5B1C18780028F8D1A3
:1012000000BD0000C0F30801054A118000BF044979
:10121000091F098801F080010029F8D070470000FB
:101220000444004000B5034603E01878FFF7EAFFE6
:101230005B1C18780028F8D100BD0000104909880F
:1012400001F02001D1B10E49091D0988C8B20A2850
:1012500009D00C490C4A127888540B490978491C6A
:10126000094A11700AE00021064A074B1B78D15445
:101270000121064A11700021034A117070470000D5
:1012800000380140AC0000201900002018000020A8
:101290001049098801F02001D1B10E49091D0988C2
:1012A000C8B2212809D00C490C4A127888540B493D
:1012B0000978491C094A11700AE00021064A074BC7
:1012C0001B78D1540121064A11700021034A117084
:1012D0007047000000440040C00000201B000020B8
:1012E0001A0000201049098801F02001D1B10E49EF
:1012F000091D0988C8B20A2809D00C490C4A12787D
:1013000088540B490978491C094A11700AE00021E8
:10131000064A074B1B78D1540121064A117000215F
:10132000034A11707047000000480040D4000020BC
:101330001D0000201C00002000280DDB00BF00BFA6
:1013400000F01F02012191404209920002F1E022C7
:10135000C2F8001100BF00BF704710B5044600F08E
:10136000A6F820B14FF0FF31206801F055FA10BD0A
:1013700070B50546286800F0AFFE00240BE0084970
:1013800051F824102868884204D10020044941F80B
:10139000240002E0641C052CF1D300BF70BD0000E6
:1013A0006804002070B5054600202860002415E080
:1013B000124850F8240080B904EB8400104A02EB74
:1013C0000011012001F06DF80C4941F82400084695
:1013D00050F824002860012070BD641C052CE7D360
:1013E00000F065F818B1012001F04AF8286028687B
:1013F00008B90020F0E70120EEE7000068040020B3
:10140000D802002010B5044600F051F828B100239E
:101410001A461946206801F0F1F810BD7047000027
:101420001CB5002204210A2001F050F8124908607E
:10143000FFF7BAFC0020012103464A02CDE9001063
:101440000EA1104801F0B0FA0020012103464A0223
:10145000CDE900100CA10E4801F0A6FA00200121F0
:1014600003464A02CDE9001007A10A4801F09CFAA0
:1014700000F024FF00201CBD0C00002052656164B8
:1014800000000000A110000853656E640000000019
:101490007D110008DD0F000870B50446049D601A38
:1014A000EE1A7043561A90FBF6F0184470BD10B552
:1014B00001F0D4FA022801D1012010BD0020FCE780
:1014C0002DE9F04105460E4620480768204800688F
:1014D000001D00F047FD681CD8B9D6B11D49486809
:1014E0001B49096888601A4982680968CA601849F6
:1014F0000968091D8268516015490968091D8160E4
:10150000144A134909684A6111460968491C116067
:101510001AE07C190E4800684460BC4207D20C48AF
:101520000168091D0C48006800F059FD0CE00848EE
:101530000168091D0948006800F051FD084800686D
:10154000844201D206480460BDE8F0816C000020AE
:1015500058000020242D0020600000205C000020A6
:101560008800002010B5044600F054FD30480068A3
:10157000401C2F4908602F48006840B92D4804607E
:101580000846006801280DD100F0FCF90AE02A485D
:10159000006838B927480068C06AE16A884201D803
:1015A0002448046025480068401C24490860084617
:1015B000006860642249E06A0968884202D92049CB
:1015C000E06A0860E16A01EB81011E4A02EB8101D9
:1015D0004868A0608268E260211D82685160816075
:1015E000E16A01EB8101174A02EB81026261E16A63
:1015F00001EB8101134A52F82110491CE26A02EB07
:101600008202104B43F8221000F016FD0A480068D1
:1016100068B108480068C06AE16A884207D24FF0A2
:10162000805009490860BFF34F8FBFF36F8F10BD23
:101630006800002058000020740000208400002072
:10164000700000207428002004ED00E008B500F0D0
:10165000E1FC0E480068A8B90D4800F0B0FC0D4848
:1016600000F0ADFC0A480C4908600A480B490860C4
:1016700000200B4B0B4A10210090052000F04FFF7B
:101680000249086000F0D8FC08BD0000A00000205E
:10169000382D00204C2D0020980000209C000020B8
:1016A000602D0020B02D002010B516E000F0B2FC37
:1016B0000C48C068C468201D00F054FC0A4800684B
:1016C000401E0949086009480068401E0749086033
:1016D00000F0B2FC204600F05FF8044800680028E3
:1016E000E4D110BD102D002068000020640000200F
:1016F00070B504460D46206C70B1216CE068014461
:10170000E160D4E90210884201D32168E1602846F3
:10171000226CE168FEF730FE70BD2DE9F041044611
:101720000F4615464FF00008A66B206C48B920689C
:1017300000282CD1A06801F06FFA80460020A0603C
:1017400025E07DB93946226C6068FEF715FE216CF4
:10175000606808446060D4E90101884217D32068BA
:10176000606014E03946226CE068FEF705FE216CEB
:10177000E068411AE1602168E068884203D2216C88
:10178000A068411AE160022D01D106B1761E701CDD
:10179000A0634046BDE8F08110B5044694F85900B6
:1017A00030B9206B00F058FC204600F055FC06E0F4
:1017B00094F85900012802D1204600F04DFC10BDDC
:1017C00001464A6A22B10A6B1268C2F1380000E091
:1017D000002070470146084A126812680AB90122BF
:1017E00000E000220A600A6822B9034A1268D2683F
:1017F000106800E0002070479800002030B54FF4DA
:101800000053174800F007042CB1C01D20F007005A
:10181000134C041B1B1B0246124C22600024114D6A
:101820006C60D018083820F007000F4C20600024AE
:101830000D4D2D686C600C4D2D682C601146441ABE
:101840004C60094C24680C60084D4C682C60084DB5
:101850004C682C604FF00044064D2C6030BD0000F9
:1018600074080020340000203C00002044000020C8
:10187000400000205000002000BFFFF715FF064881
:1018800000680128F9D94FF0805004490860BFF37F
:101890004F8FBFF36F8FF0E77428002004ED00E056
:1018A00010B5044654B10020A06020600021E16022
:1018B00000231A461946204600F0A0FE10BD2DE96F
:1018C000F04106460D4617469846069C0DB9246021
:1018D00000E02760E66325640121204600F03EFE1B
:1018E00084F84C80BDE8F0812DE9F05F81460E461A
:1018F00090469A460A9F0C9C4FEA8801A522206BCD
:10190000FEF77FFDA8F10100216B01EB800B2BF0AE
:10191000070B86B1002507E0715D04F134004155E5
:10192000705D00B902E06D1C102DF5D300BF0021E1
:101930004320015502E0002084F83400382F00D302
:101940003727E762E76400202065201D00F044FB94
:1019500004F1180000F040FB2461C7F13800A061D9
:1019600064620020606584F8580052464946584633
:1019700000F0E6FA20600B9808B10B980460BDE80F
:10198000F09F000010B5002407E004EB84010F4A2B
:1019900002EB810000F013FB641C382CF5D30C48DB
:1019A00000F00DFB0B4800F00AFB0B4800F007FBB2
:1019B0000A4800F004FB0A4800F001FB044809490A
:1019C000086004480849086010BD00007428002021
:1019D000D42C0020E82C0020FC2C0020102D00200E
:1019E000242D00205C0000206000002010B501467E
:1019F000164800E0006803688B42FBD30246436848
:101A000013448B4204D143684C682344436001462D
:101A10000A464B6813440468A34211D10C4C036876
:101A20002468A34208D04B680468646823444B6070
:101A300003681B680B6005E0054B1B680B6001E049
:101A400003680B60884200D0016010BD34000020A4
:101A50003C0000202DE9F04104460D4616461F4685
:101A60004FF0000865602461B5420CD8F01BA169F5
:101A7000884202D34FF0010811E0211D0948006897
:101A800000F0ADFA0BE0BE4204D2BD4202D34FF0EB
:101A9000010804E0211D0448006800F0A0FA404657
:101AA000BDE8F0819C0000209800002070B505463C
:101AB00000F0B0FAA86B08B9012400E0002400F09F
:101AC000BBFA204670BD70B5054600F0A3FAA86BBE
:101AD000E96B884201D1012400E0002400F0ACFA57
:101AE000204670BD70B505460E460E480068C068B9
:101AF000C468201D00F036FA94F8280000F00400B5
:101B000028B132462946204600F0D0F805E094F886
:101B1000280000F0FE0084F828002046216A88474B
:101B200070BD00009800002070B586B077E0029884
:101B3000002805DA03AED6E90020B168904700BF5F
:101B4000029800286BDB049C606908B9012000E062
:101B5000002010B9201D00F005FA01A800F0D2F80D
:101B6000054602980A2858D2DFE800F05705072EEC
:101B7000364706082F3700BF00BF00BF94F8280083
:101B800040F0010084F828000398A26981180346F8
:101B90002A462046FFF75EFFA8B194F8280000F01F
:101BA000040038B10398A26981182A46204600F043
:101BB0007DF805E094F8280000F0FE0084F8280085
:101BC0002046216A884729E000BF94F8280000F0E9
:101BD000FE0084F8280021E000BF94F8280040F0BF
:101BE000010084F828000398A061A06941192B46E0
:101BF0002A462046FFF72EFF10E094F8280000F058
:101C0000020018B9204600F027FA05E094F82800F1
:101C100000F0FE0084F8280000E000BF00BF0022B2
:101C200002A90448006800F075FD00287FF47FAF2A
:101C300006B070BDA0000020F8B505460C4600F0C7
:101C40008BFB684600F05EF80646009820BB44B95E
:101C5000B54206D801F01AF931462846FFF742FF8F
:101C60001CE03CB10E480068006808B9012000E0A3
:101C700000200446A91B22460A48006800F036FAF4
:101C800001F004F950B94FF0805007490860BFF3E4
:101C90004F8FBFF36F8F01E001F0F8F8F8BD00003F
:101CA0009C000020A000002004ED00E070B5044678
:101CB0000D46164604E0A06905442046216A88477F
:101CC000A06941192B4632462046FFF7C3FE002883
:101CD000F1D170BD09480068006808B9012000E032
:101CE000002020B14FF0FF300549086005E00348AF
:101CF0000068C06800680249086070475C00002006
:101D00008800002070B5044600F0B8FE054607487C
:101D10000068854204D200F00BF80120206001E049
:101D20000020206001480560284670BDA800002002
:101D300070B508E00D480068C06804684FF0FF31D6
:101D40002046FFF7CFFE09480068006808B9012067
:101D500000E000200028EDD0044805680448006831
:101D6000024908600248056070BD0000980000202C
:101D70009C00002000BF102080F31188BFF34F8F1C
:101D8000BFF36F8F00BF00BFFEE708B500BF684616
:101D9000FFF720FD044620460099FFF74DFFFFF7AF
:101DA000C3FEF4E770B5044600F034F994F94550E9
:101DB00010E0606A08B9012000E0002038B904F1A1
:101DC000240000F0DFFF18B100F0DCF900E003E0D0
:101DD000681E45B2002DECDC00BFFF2084F84500F2
:101DE00000F02AF900F016F994F9445010E0206947
:101DF00008B9012000E0002048B904F1100000F00B
:101E0000C1FF08B100F0BEF9681E45B200E001E074
:101E1000002DECDC00BFFF2084F8440000F00CF93A
:101E200070BD00002DE9F04104464FF0000800F0BD
:101E300093FA3548006808B9FFF7E0FC33480068BA
:101E4000204000285BD1B4B104F10800A04212D9AF
:101E5000083404F0070078B104F00700C0F108006E
:101E60002044A04205D904F00700C0F10800044452
:101E700002E0002400E00024002C40D02448006848
:101E800084423CD8234E3046056801E02E462D683A
:101E90006868A04202D228680028F7D11A48006872
:101EA00085422CD0306800F10808286830606868E6
:101EB000001B102807D92F196868001B78606C6018
:101EC0003846FFF793FD124968680968081A1049F7
:101ED00008600846006810490968884203D20C4827
:101EE00000680D4908600949686809680843686026
:101EF0000020286009480068401C0849086000F07C
:101F0000C5FF4046BDE8F0813C00002050000020A5
:101F10004000002034000020440000204800002041
:101F20000648006830B10549096801F15000096DA3
:101F3000491C0160014800687047000058000020FB
:101F4000001F4FF080730360001F21F00103036046
:101F5000001F034B036014380260203870470000F4
:101F6000751D000801460A69D1E901309860D1E980
:101F7000010358605068884201D188685060002091
:101F800008611068401E106010687047034B0360C2
:101F9000034B0B6080231360704700007C0400201B
:101FA000D8040020034B0360034B0B6050231360E5
:101FB00070470000D806002034070020704700F169
:101FC000080141604FF0FF31816000F10801C160FC
:101FD000016100210160704700210161704710B567
:101FE00002460B685C1C0CB9106907E002F108009E
:101FF00000E04068446824689C42FAD944684C6018
:102000004C68A160886041600A611468641C1460B7
:1020100010BD000000BF102080F31188BFF34F8F68
:10202000BFF36F8F00BF03480068401C0149086080
:10203000704700005400002006480068401E054913
:1020400008600846006820B9002080F3118800BFAE
:1020500000BF70475400002070B506463546FEB1FB
:10206000083D2C460F49606809680840C0B12068E7
:10207000B0B90C49606809688843606000F06CF989
:102080000949606809680844074908602046FFF765
:10209000ADFC06480068401C0449086000F0F6FEEC
:1020A00070BD000050000020400000204C000020C7
:1020B00000204FF0E02108618861064800684FF475
:1020C0007A71B0FBF1F0401E4FF0E021486107202B
:1020D000086170472000002070B50446254695F839
:1020E000460010B92846FFF7B7FF70BD2DE9F04153
:1020F00005460E4617462C46FFF78CFF94F9440020
:10210000401C10B9002084F8440094F94500401C9C
:1021100010B9002084F84500FFF78EFFA06B28B9A6
:102120003A46314604F1240000F042F82046FFF719
:1021300039FEBDE8F081000070B50446002544B1C9
:1021400000F00AF900212046FFF7BAF900F09EFEE0
:1021500005463DB94FF0805003490860BFF34F8FEB
:10216000BFF36F8F70BD000004ED00E00349096804
:102170000160034909684160704700008000002049
:102180006C00002001200149086070477C0000209D
:1021900070B505460C460548016818312846FFF71A
:1021A0001EFF01212046FFF78BF970BD580000206B
:1021B00070B504460E46154660680F490968C86147
:1021C0000D49826809680A620B49096818318268FA
:1021D00051600949096818318160074909688C62B2
:1021E0002168491C21600DB14FF0FF362946304669
:1021F000FFF766F970BD0000580000202DE9F04798
:1022000006460F4634464FF00109002E4FD0E06CD1
:10221000B84201D23D4600E0E56CE06AA84246D0F3
:10222000206D012843D1D4F82C80E562A06900F02C
:10223000004010B9C5F13800A06108EB88011D4AC3
:1022400002EB81016069884201D1012000E0002099
:1022500068B3201DFFF786FE1749E06A09688842C7
:1022600002D91549E06A0860E16A01EB8101114A6F
:1022700002EB81014868A0608268E260211D8268EB
:1022800051608160E16A01EB81010A4A02EB81023F
:102290006261E16A01EB8101064A52F82110491C92
:1022A000E26A02EB8202034B43F8221000BFBDE852
:1022B000F0870000742800207000002010B586B060
:1022C00000200590049003AA04A905A8FFF75EFE6C
:1022D0000022DDE904101346CDE90021029016A189
:1022E0001748039A00F092FB1649086008460068F8
:1022F00008B1012400E00024012C02D100F072FE9C
:102300000446012C14D100BF102080F31188BFF3C4
:102310004F8FBFF36F8F00BF4FF0FF300A49086047
:1023200001200A49086000200949086000F074F89B
:102330000848006806B010BD49444C450000000044
:10234000791800088C00002088000020740000200C
:102350006C0000209000002002480068401C0149E9
:10236000086070479400002070B52648006818B1D6
:1023700001202549086043E00020234908602348E4
:102380000068046B4FF0A5352068B0F1A53F0BD174
:102390006068B0F1A53F07D1A068B0F1A53F03D1B7
:1023A000E068B0F1A53F05D01848016834310068F5
:1023B000FFF704FE1648016800E0491E01EB8100AA
:1023C000144A52F8200008B9012000E0002000283B
:1023D000F3D101EB81020F4B03EB8200426852689C
:1023E000426000F108024368934202D14268526899
:1023F00042604268D268054B1A600548016000BF20
:1024000070BD0000940000207C00002058000020D7
:10241000700000207428002010B50A48006840F4BD
:102420007F00084908600846006840F07F40086067
:10243000FFF73EFE002004490860FDF7BFFE0020C4
:1024400010BD000020ED00E05400002010B500BFDA
:10245000102080F31188BFF34F8FBFF36F8F00BF41
:1024600000F012FB18B14FF080500449086000BF23
:10247000002080F3118800BF10BD000004ED00E0D3
:102480002DE9F041044601260027224600210120C3
:1024900000F01CF805462846FFF702FA2846BDE87A
:1024A000F0812DE9F84304460D4601274FF000085E
:1024B0002B46002211460120009400F030F8064619
:1024C0003046FFF7EDF93046BDE8F8832DE9F843D3
:1024D00005460E4617460024F5B1601EB0FBF5F028
:1024E000B04219D305FB06F010F1510F14D805FBCB
:1024F00006F909F15000FFF795FC044664B1A046C7
:1025000008F15008002084F846003B464246314618
:1025100028460094FFF7D3F92046BDE8F8832DE95B
:10252000F84380460D4616461C46DDF820900027ED
:10253000B8F1000F0FD074B106B165B106B955B945
:102540002746012087F846004B463246294640463A
:102550000097FFF7B4F93846BDE8F8832DE9F0415C
:1025600005460E4601272C46002C41D0E06B002882
:102570003ED0B91EE06BB1FBF0F0216C884237D33E
:10258000FFF748FDD4E90F12206801FB0200A060AC
:102590000020A06320686060E06B401E226C216810
:1025A00000FB0211E160FF2084F8440084F845003C
:1025B0009EB9206908B9012000E00020A8B904F103
:1025C000100000F0DFFB80B14FF080500A49086036
:1025D000BFF34F8FBFF36F8F07E004F11000FFF7D9
:1025E000EEFC04F12400FFF7EAFCFFF725FD00E014
:1025F00000273846BDE8F08104ED00E02DE9FF43F7
:1026000083B0074688461D464FF000093C4600BF90
:10261000FFF700FDA06BE16B884201D3022D28D1AA
:102620002A4641462046FFF778F80646606A08B910
:10263000012000E0002068B904F1240000F0A2FBB2
:1026400088B14FF0805032490860BFF34F8FBFF31D
:102650006F8F08E03EB14FF080502D490860BFF306
:102660004F8FBFF36F8FFFF7E7FC012007B0BDE886
:10267000F083059818B9FFF7DFFC0020F6E7B9F101
:10268000000F04D101A8FFF771FD4FF00109FFF71A
:10269000D3FCFFF761FEFFF7BDFC94F94400401C3A
:1026A00010B9002084F8440094F94500401C10B98A
:1026B000002084F84500FFF7BFFC05A901A800F041
:1026C00043F9F0B92046FFF7FEF9A0B104F110007C
:1026D0000599FFF75DFD2046FFF764FB00F0D6FB90
:1026E000002895D14FF0805009490860BFF34F8F03
:1026F000BFF36F8F8CE72046FFF754FB00F0C6FB5B
:1027000086E72046FFF74EFB00F0C0FB0020ADE758
:1027100004ED00E02DE9F74183B005460F464FF088
:1027200000082C4600BFFFF775FCA66BF6B13946D2
:102730002046FEF7DDFF701EA063206908B9012066
:1027400000E0002060B904F1100000F01BFB38B17C
:102750004FF080502F490860BFF34F8FBFF36F8F4A
:10276000FFF76AFC012006B0BDE8F081059818B9B2
:10277000FFF762FC0020F6E7B8F1000F04D101A8D2
:10278000FFF7F4FC4FF00108FFF756FCFFF7E4FDFC
:10279000FFF740FC94F94400401C10B9002084F875
:1027A000440094F94500401C10B9002084F845000D
:1027B000FFF742FC05A901A800F0C6F8F0B92046D1
:1027C000FFF774F9A0B104F124000599FFF7E0FCCC
:1027D0002046FFF7E7FA00F059FB0028A3D14FF09D
:1027E00080500C490860BFF34F8FBFF36F8F9AE79B
:1027F0002046FFF7D7FA00F049FB94E72046FFF7A1
:10280000D1FA00F043FB2046FFF750F900288AD0A8
:102810000020A8E704ED00E02DE9F34182B0054671
:1028200000272C46B84600BFFFF7F4FBA66BFEB1AD
:10283000701EA063206810B9FFF772FBA0602069CA
:1028400008B9012000E0002060B904F1100000F098
:1028500099FA38B14FF080503A490860BFF34F8F72
:10286000BFF36F8FFFF7E8FB012004B0BDE8F081F4
:10287000039818B9FFF7E0FB0020F6E71FB9684698
:10288000FFF774FC0127FFF7D7FBFFF765FDFFF7A4
:10289000C1FB94F94400401C10B9002084F84400A6
:1028A00094F94500401C10B9002084F84500FFF75A
:1028B000C3FB03A9684600F047F840BB2046FFF77A
:1028C000F5F8F0B1206838B9FFF7A4FBA06800F074
:1028D000EDF98046FFF7B0FB04F124000399FFF700
:1028E00057FC2046FFF75EFA00F0D0FA00289BD193
:1028F0004FF0805013490860BFF34F8FBFF36F8FC5
:1029000092E72046FFF74EFA00F0C0FA8CE7204627
:10291000FFF748FA00F0BAFA2046FFF7C7F8002898
:1029200082D0B8F1000F0BD0FFF774FB2046FEF702
:1029300047FF06463146A068FFF760FCFFF77CFBC7
:10294000002092E704ED00E070B506460C46FFF764
:1029500061FB134802687068131A2068401C08B9AC
:10296000002519E00F4930680968884206D0706870
:10297000904203D80125002020600DE02068984295
:1029800007D92068C01A20603046FFF7EFFB00250A
:1029900002E0002020600125FFF74EFB284670BDB5
:1029A0006C000020800000202DE9FF4F85B080469C
:1029B00089461746DDE912ABB800FFF733FA064641
:1029C00056B15C20FFF72EFA04460CB1266304E0F2
:1029D0003046FFF741FB00E000248CB1002084F872
:1029E0005900CDE900ABCDE902403A4649464046A0
:1029F000089BFEF779FF2046FEF7B4FD012501E0B4
:102A00004FF0FF35284609B0BDE8F08F2DE9F04FB3
:102A100085B00746884691469A46DDE90EB6109C79
:102A2000ACB1A6B125462E63022085F859000020DE
:102A300004A953464A46CDE900B1CDE902504146CA
:102A40003846FEF751FF2846FEF78CFD01E00020D6
:102A50000490049805B0BDE8F08F000005490968AE
:102A600009B9012005E00449096809B9022000E01C
:102A7000002070477400002094000020014908687D
:102A8000704700006C0000202DE9F04100275748F6
:102A9000006800287DD156480068451C54480560F0
:102AA0008DB95448D0F800805348006851490860F7
:102AB0005148C0F8008051480068401C4F490860E8
:102AC000FFF708F900BF4E480068854275D300BF84
:102AD00048480068006808B9012000E0002020B1E3
:102AE0004FF0FF304649086066E042480068C06821
:102AF000C4686668B54202D2414806605CE060691D
:102B0000D4E902128A60D4E902214A60211D426898
:102B10008A4201D1E1684160002262610168491E78
:102B20000160A06A98B1A06AD4E907128A60D4E96A
:102B300007214A6004F1180142688A4201D1216AE2
:102B400041600022A2620168491E016000BF2D4958
:102B5000E06A0968884202D92A49E06A0860E16AA5
:102B600001EB8101284A02EB81014868A06082687C
:102B7000E260211D826851608160E16A01EB8101A0
:102B8000214A02EB81026261E16A01EB81011E4A86
:102B900000E022E052F82110491CE26A02EB8202B6
:102BA000194B43F822101949E06A0968C96A88423A
:102BB0008ED301278CE700E000BF14480068C06A8C
:102BC00000EB8000104951F82000012800D90127AE
:102BD0000F48006800B1012704E00E480068401C5F
:102BE0000C4908603846BDE8F081000094000020E0
:102BF0006C0000205C0000206000002080000020AD
:102C00008800002070000020742800205800002058
:102C10007C0000207800002070B505462C46002678
:102C2000002D3CD0206D401E2065E16CE06A88429A
:102C300035D0206D98BB201DFFF794F9E06CE06261
:102C4000E06AC0F13800A0611649E06A096888426C
:102C500002D91449E06A0860E16A01EB8101124A75
:102C600002EB81014868A0608268E260211D8268F1
:102C700051608160E16A01EB81010B4A02EB810244
:102C80006261E16A01EB8101074A52F82110491C97
:102C9000E26A02EB8202044B43F82210012630461E
:102CA00070BD0000700000207428002070B505463B
:102CB0002C460026002D5CD02F49E06A0968C96ABD
:102CC00088424FD2A06900F0004028B92A48006825
:102CD000C06AC0F13800A061E16A01EB8101274AB6
:102CE00002EB81016069884201D1012000E00020EF
:102CF00088B3201DFFF736F91F480068C06AE062FC
:102D00001F49E06A0968884202D91D49E06A0860E3
:102D1000E16A01EB8101194A02EB81014868A06078
:102D20008268E260211D826851608160E16A01EB86
:102D30008101124A02EB81026261E16A01EB8101C9
:102D40000E4A52F82110491CE26A02EB82020B4B38
:102D500043F8221004E0FFE707480068C06AE06219
:102D6000012606E00449E06C0968C96A884200D27D
:102D70000126304670BD0000580000207428002055
:102D80007000002070B50346D868C168886AD1E930
:102D90000745A560D1E90754656001F1180445684D
:102DA000A54201D10C6A446000258D620468641E4E
:102DB00004603048006800283CD14869D1E90245E8
:102DC000A560D1E9025465600C1D4568A54201D19A
:102DD000CC68446000254D610468641E0460264C84
:102DE000C86A2468A04202D9234CC86A2060CC6A11
:102DF00004EB8404214D05EB8404606888608568D9
:102E0000CD600C1D85686C608460CC6A04EB840422
:102E10001A4D05EB84054D61CC6A04EB8404174D13
:102E200055F82440641CCD6A05EB8505134E46F821
:102E3000254010E0124C6068C86185680D6201F1A0
:102E4000180485686C6084600D4D8D622C46246882
:102E5000641C2C6000BF0B4CC86A2468E46AA04262
:102E600004D901220120084C206000E00022104615
:102E700070BD000094000020700000207428002025
:102E8000FC2C0020580000207C00002070B500249D
:102E90000026FFF7BFF84A480068401E484908600E
:102EA0000846006800287DD146480068002879D08F
:102EB0005AE04548C068C468A06AD4E907128A602D
:102EC000D4E907214A6004F1180142688A4201D11D
:102ED000216A41600022A2620168491E01606069A6
:102EE000D4E902128A60D4E902214A60211D4268B5
:102EF0008A4201D1E1684160002262610168491E95
:102F000001603249E06A0968884202D92F49E06AC3
:102F10000860E16A01EB81012D4A02EB81014868FA
:102F2000A0608268E260211D826851608160E16A70
:102F300001EB8101264A02EB81026261E16A01EB49
:102F40008101234A52F82110491CE26A02EB8202F5
:102F50001F4B43F822101F49E06A0968C96A88427A
:102F600002D301201C4908601748006808B90120F5
:102F700000E0002000289CD00CB1FEF7ABFE174803
:102F8000056865B100BFFFF77FFD10B10120124950
:102F900008606D1E002DF6D10020104908600E4813
:102FA000006800E008E038B1012630070C490860ED
:102FB000BFF34F8FBFF36F8FFFF73EF8304670BD02
:102FC0009400002068000020FC2C002070000020ED
:102FD00074280020580000207C0000207800002089
:102FE00004ED00E010B586B00024FEF72FFB10487A
:102FF0000068D0B100200590049003AA04A905A898
:10300000FEF7D0FF2822DDE904100023CDE90021DE
:10301000029008A10948039AFFF7F8FC08490860E4
:103020000846006800B1012400BF204606B010BD6C
:10303000A0000020546D7220537663008B1D0008A1
:10304000A40000206430000800000020AC00000054
:103050002801000810310008AC000020B433000043
:103060004401000800000000000000000000000013
:103070000000000000000000000000000000000050
:103080000000000000A24A04000000000000000050
:103090000102030406070809000000000000000008
:1030A0000000000000000000000000000000000020
:1030B0000000000000000000AAAAAAAA0000000068
:1030C0000000000000000000000000000000000000
:1030D00000000000000000000000000000000000F0
:1030E00000000000000000000000000000000000E0
:1030F0000000000037000000000000000000000099
:1031000000000000000000000000000000000000BF
:0400000508000231BC
:00000001FF
